{
  "_format": "hh3-artifact-1",
  "contractName": "AIJudge",
  "sourceName": "contracts/AIJudge.sol",
  "abi": [
    {
      "anonymous": false,
      "inputs": [
        {
          "indexed": true,
          "internalType": "uint256",
          "name": "bountyId",
          "type": "uint256"
        },
        {
          "indexed": false,
          "internalType": "bytes",
          "name": "aiReview",
          "type": "bytes"
        }
      ],
      "name": "AllAnswersJudged",
      "type": "event"
    },
    {
      "anonymous": false,
      "inputs": [
        {
          "indexed": true,
          "internalType": "uint256",
          "name": "bountyId",
          "type": "uint256"
        },
        {
          "indexed": true,
          "internalType": "uint256",
          "name": "submissionIndex",
          "type": "uint256"
        },
        {
          "indexed": true,
          "internalType": "address",
          "name": "submitter",
          "type": "address"
        }
      ],
      "name": "AnswerSubmitted",
      "type": "event"
    },
    {
      "anonymous": false,
      "inputs": [
        {
          "indexed": true,
          "internalType": "uint256",
          "name": "bountyId",
          "type": "uint256"
        },
        {
          "indexed": true,
          "internalType": "address",
          "name": "owner",
          "type": "address"
        },
        {
          "indexed": false,
          "internalType": "string",
          "name": "title",
          "type": "string"
        },
        {
          "indexed": false,
          "internalType": "uint256",
          "name": "reward",
          "type": "uint256"
        },
        {
          "indexed": false,
          "internalType": "uint256",
          "name": "deadline",
          "type": "uint256"
        }
      ],
      "name": "BountyCreated",
      "type": "event"
    },
    {
      "anonymous": false,
      "inputs": [
        {
          "indexed": true,
          "internalType": "uint256",
          "name": "bountyId",
          "type": "uint256"
        },
        {
          "indexed": true,
          "internalType": "uint256",
          "name": "winnerIndex",
          "type": "uint256"
        },
        {
          "indexed": true,
          "internalType": "address",
          "name": "winner",
          "type": "address"
        },
        {
          "indexed": false,
          "internalType": "uint256",
          "name": "reward",
          "type": "uint256"
        }
      ],
      "name": "WinnerFinalized",
      "type": "event"
    },
    {
      "inputs": [],
      "name": "MAX_ANSWER_LENGTH",
      "outputs": [
        {
          "internalType": "uint256",
          "name": "",
          "type": "uint256"
        }
      ],
      "stateMutability": "view",
      "type": "function"
    },
    {
      "inputs": [],
      "name": "MAX_SUBMISSIONS",
      "outputs": [
        {
          "internalType": "uint256",
          "name": "",
          "type": "uint256"
        }
      ],
      "stateMutability": "view",
      "type": "function"
    },
    {
      "inputs": [
        {
          "internalType": "uint256",
          "name": "",
          "type": "uint256"
        }
      ],
      "name": "bounties",
      "outputs": [
        {
          "internalType": "address",
          "name": "owner",
          "type": "address"
        },
        {
          "internalType": "string",
          "name": "title",
          "type": "string"
        },
        {
          "internalType": "string",
          "name": "rubric",
          "type": "string"
        },
        {
          "internalType": "uint256",
          "name": "reward",
          "type": "uint256"
        },
        {
          "internalType": "uint256",
          "name": "deadline",
          "type": "uint256"
        },
        {
          "internalType": "bool",
          "name": "judged",
          "type": "bool"
        },
        {
          "internalType": "bool",
          "name": "finalized",
          "type": "bool"
        },
        {
          "internalType": "bytes",
          "name": "aiReview",
          "type": "bytes"
        },
        {
          "internalType": "uint256",
          "name": "winnerIndex",
          "type": "uint256"
        }
      ],
      "stateMutability": "view",
      "type": "function"
    },
    {
      "inputs": [
        {
          "internalType": "string",
          "name": "title",
          "type": "string"
        },
        {
          "internalType": "string",
          "name": "rubric",
          "type": "string"
        },
        {
          "internalType": "uint256",
          "name": "deadline",
          "type": "uint256"
        }
      ],
      "name": "createBounty",
      "outputs": [
        {
          "internalType": "uint256",
          "name": "bountyId",
          "type": "uint256"
        }
      ],
      "stateMutability": "payable",
      "type": "function"
    },
    {
      "inputs": [
        {
          "internalType": "uint256",
          "name": "bountyId",
          "type": "uint256"
        },
        {
          "internalType": "uint256",
          "name": "winnerIndex",
          "type": "uint256"
        }
      ],
      "name": "finalizeWinner",
      "outputs": [],
      "stateMutability": "nonpayable",
      "type": "function"
    },
    {
      "inputs": [
        {
          "internalType": "uint256",
          "name": "bountyId",
          "type": "uint256"
        }
      ],
      "name": "getBounty",
      "outputs": [
        {
          "internalType": "address",
          "name": "owner",
          "type": "address"
        },
        {
          "internalType": "string",
          "name": "title",
          "type": "string"
        },
        {
          "internalType": "string",
          "name": "rubric",
          "type": "string"
        },
        {
          "internalType": "uint256",
          "name": "reward",
          "type": "uint256"
        },
        {
          "internalType": "uint256",
          "name": "deadline",
          "type": "uint256"
        },
        {
          "internalType": "bool",
          "name": "judged",
          "type": "bool"
        },
        {
          "internalType": "bool",
          "name": "finalized",
          "type": "bool"
        },
        {
          "internalType": "uint256",
          "name": "submissionCount",
          "type": "uint256"
        },
        {
          "internalType": "uint256",
          "name": "winnerIndex",
          "type": "uint256"
        },
        {
          "internalType": "bytes",
          "name": "aiReview",
          "type": "bytes"
        }
      ],
      "stateMutability": "view",
      "type": "function"
    },
    {
      "inputs": [
        {
          "internalType": "uint256",
          "name": "bountyId",
          "type": "uint256"
        },
        {
          "internalType": "uint256",
          "name": "index",
          "type": "uint256"
        }
      ],
      "name": "getSubmission",
      "outputs": [
        {
          "internalType": "address",
          "name": "submitter",
          "type": "address"
        },
        {
          "internalType": "string",
          "name": "answer",
          "type": "string"
        }
      ],
      "stateMutability": "view",
      "type": "function"
    },
    {
      "inputs": [
        {
          "internalType": "uint256",
          "name": "bountyId",
          "type": "uint256"
        },
        {
          "internalType": "bytes",
          "name": "llmInput",
          "type": "bytes"
        }
      ],
      "name": "judgeAll",
      "outputs": [],
      "stateMutability": "nonpayable",
      "type": "function"
    },
    {
      "inputs": [],
      "name": "nextBountyId",
      "outputs": [
        {
          "internalType": "uint256",
          "name": "",
          "type": "uint256"
        }
      ],
      "stateMutability": "view",
      "type": "function"
    },
    {
      "inputs": [
        {
          "internalType": "uint256",
          "name": "bountyId",
          "type": "uint256"
        },
        {
          "internalType": "string",
          "name": "answer",
          "type": "string"
        }
      ],
      "name": "submitAnswer",
      "outputs": [],
      "stateMutability": "nonpayable",
      "type": "function"
    }
  ],
  "bytecode": "0x608060405260015f81905580546001600160a01b03191673532f0df0896f353d8c3dd8cc134e8129da2a39481790553480156038575f5ffd5b5061185a806100465f395ff3fe60806040526004361061008f575f3560e01c8063d8964ee911610057578063d8964ee91461013a578063dc2f874414610159578063ee8c4bbf1461018d578063fd14fad4146101c2578063fd3a8329146101d6575f5ffd5b806301fa3bec146100935780632bfa7d60146100b45780635a7722f1146100da5780638e789683146100f9578063b7ed70711461010d575b5f5ffd5b34801561009e575f5ffd5b506100b26100ad366004611042565b6101eb565b005b6100c76100c2366004611089565b61041f565b6040519081526020015b60405180910390f35b3480156100e5575f5ffd5b506100b26100f43660046110fa565b610513565b348015610104575f5ffd5b506100c7600a81565b348015610118575f5ffd5b5061012c6101273660046110fa565b61074b565b6040516100d1929190611148565b348015610145575f5ffd5b506100b2610154366004611042565b6108a6565b348015610164575f5ffd5b50610178610173366004611173565b610adb565b6040516100d19998979695949392919061118a565b348015610198575f5ffd5b506101ac6101a7366004611173565b610cc7565b6040516100d19a99989796959493929190611208565b3480156101cd575f5ffd5b506100c75f5481565b3480156101e1575f5ffd5b506100c76107d081565b5f8381526002602052604090205483906001600160a01b03166102295760405162461bcd60e51b81526004016102209061128d565b60405180910390fd5b5f848152600260205260409020600581015460ff161561027c5760405162461bcd60e51b815260206004820152600e60248201526d185b1c9958591e481a9d5919d95960921b6044820152606401610220565b6005810154610100900460ff16156102a65760405162461bcd60e51b8152600401610220906112b7565b6008810154600a116102f15760405162461bcd60e51b8152602060048201526014602482015273746f6f206d616e79207375626d697373696f6e7360601b6044820152606401610220565b6107d08311156103355760405162461bcd60e51b815260206004820152600f60248201526e616e7377657220746f6f206c6f6e6760881b6044820152606401610220565b806008016040518060400160405280336001600160a01b0316815260200186868080601f0160208091040260200160405190810160405280939291908181526020018383808284375f920182905250939094525050835460018082018655948252602091829020845160029092020180546001600160a01b0319166001600160a01b03909216919091178155908301519293909290830191506103d8908261137a565b505050600881015433906103ee90600190611448565b60405187907f2193ba3aacf922823442f915857f71c32e5649130b71498a48dad0ce65f97490905f90a45050505050565b5f5f34116104615760405162461bcd60e51b815260206004820152600f60248201526e1c995dd85c99081c995c5d5a5c9959608a1b6044820152606401610220565b5f8054908061046f8361145b565b909155505f81815260026020526040902080546001600160a01b03191633178155909150600181016104a2878983611473565b50600281016104b2858783611473565b503460038201819055600482018490555f196007830155604051339184917f4e9ff8debce04524518777fdf120513b8f7e1f434da1099fd190d1aae0d495b691610501918c918c918a9061152c565b60405180910390a35095945050505050565b5f8281526002602052604090205482906001600160a01b03166105485760405162461bcd60e51b81526004016102209061128d565b5f8381526002602052604090205483906001600160a01b031633146105a25760405162461bcd60e51b815260206004820152601060248201526f3737ba103137bab73a3c9037bbb732b960811b6044820152606401610220565b5f848152600260205260409020600581015460ff166105f45760405162461bcd60e51b815260206004820152600e60248201526d1b9bdd081a9d5919d959081e595d60921b6044820152606401610220565b6005810154610100900460ff161561061e5760405162461bcd60e51b8152600401610220906112b7565b60058101805461ff001916610100179055600781018490556008810180545f91908690811061064f5761064f61156a565b5f918252602082206002919091020154600384018054908390556040516001600160a01b0390921693509190839083908381818185875af1925050503d805f81146106b5576040519150601f19603f3d011682016040523d82523d5f602084013e6106ba565b606091505b50509050806106fc5760405162461bcd60e51b815260206004820152600e60248201526d1c185e5b595b9d0819985a5b195960921b6044820152606401610220565b826001600160a01b031687897f2eb0120759ae6dd1505f3f092609ec7e75433fb2401ad648ebeb5bd4bd55e5b68560405161073991815260200190565b60405180910390a45050505050505050565b5f8281526002602052604081205460609084906001600160a01b03166107835760405162461bcd60e51b81526004016102209061128d565b5f858152600260205260409020600881015485106107d35760405162461bcd60e51b815260206004820152600d60248201526c0d2dcecc2d8d2c840d2dcc8caf609b1b6044820152606401610220565b5f8160080186815481106107e9576107e961156a565b5f918252602090912060029091020180546001820180549293506001600160a01b0390911691819061081a906112f6565b80601f0160208091040260200160405190810160405280929190818152602001828054610846906112f6565b80156108915780601f1061086857610100808354040283529160200191610891565b820191905f5260205f20905b81548152906001019060200180831161087457829003601f168201915b50505050509050945094505050509250929050565b5f8381526002602052604090205483906001600160a01b03166108db5760405162461bcd60e51b81526004016102209061128d565b5f8481526002602052604090205484906001600160a01b031633146109355760405162461bcd60e51b815260206004820152601060248201526f3737ba103137bab73a3c9037bbb732b960811b6044820152606401610220565b5f858152600260205260409020600581015460ff16156109885760405162461bcd60e51b815260206004820152600e60248201526d185b1c9958591e481a9d5919d95960921b6044820152606401610220565b6005810154610100900460ff16156109b25760405162461bcd60e51b8152600401610220906112b7565b60088101546109f45760405162461bcd60e51b815260206004820152600e60248201526d6e6f207375626d697373696f6e7360901b6044820152606401610220565b5f610a3661080287878080601f0160208091040260200160405190810160405280939291908181526020018383808284375f92019190915250610f2a92505050565b90505f5f5f83806020019051810190610a4f91906116c6565b509350509250925082158190610a785760405162461bcd60e51b81526004016102209190611792565b5060058501805460ff1916600117905560068501610a96838261137a565b50897fb51288ae628dca25614026175dc22a78631acc1a31f034c68c3fa241ca0fd05c83604051610ac79190611792565b60405180910390a250505050505050505050565b60026020525f9081526040902080546001820180546001600160a01b039092169291610b06906112f6565b80601f0160208091040260200160405190810160405280929190818152602001828054610b32906112f6565b8015610b7d5780601f10610b5457610100808354040283529160200191610b7d565b820191905f5260205f20905b815481529060010190602001808311610b6057829003601f168201915b505050505090806002018054610b92906112f6565b80601f0160208091040260200160405190810160405280929190818152602001828054610bbe906112f6565b8015610c095780601f10610be057610100808354040283529160200191610c09565b820191905f5260205f20905b815481529060010190602001808311610bec57829003601f168201915b505050506003830154600484015460058501546006860180549596939592945060ff808316946101009093041692610c40906112f6565b80601f0160208091040260200160405190810160405280929190818152602001828054610c6c906112f6565b8015610cb75780601f10610c8e57610100808354040283529160200191610cb7565b820191905f5260205f20905b815481529060010190602001808311610c9a57829003601f168201915b5050505050908060070154905089565b5f81815260026020526040812054606090819083908190819081908190819087908b906001600160a01b0316610d0f5760405162461bcd60e51b81526004016102209061128d565b5f8c815260026020819052604090912080546003820154600483015460058401546008850154600786015460018701805497986001600160a01b03909716979096890195949360ff808216946101009092041692909160068b01908990610d75906112f6565b80601f0160208091040260200160405190810160405280929190818152602001828054610da1906112f6565b8015610dec5780601f10610dc357610100808354040283529160200191610dec565b820191905f5260205f20905b815481529060010190602001808311610dcf57829003601f168201915b50505050509850878054610dff906112f6565b80601f0160208091040260200160405190810160405280929190818152602001828054610e2b906112f6565b8015610e765780601f10610e4d57610100808354040283529160200191610e76565b820191905f5260205f20905b815481529060010190602001808311610e5957829003601f168201915b50505050509750808054610e89906112f6565b80601f0160208091040260200160405190810160405280929190818152602001828054610eb5906112f6565b8015610f005780601f10610ed757610100808354040283529160200191610f00565b820191905f5260205f20905b815481529060010190602001808311610ee357829003601f168201915b505050505090509b509b509b509b509b509b509b509b509b509b5050509193959799509193959799565b60605f5f846001600160a01b031684604051610f4691906117ab565b5f604051808303815f865af19150503d805f8114610f7f576040519150601f19603f3d011682016040523d82523d5f602084013e610f84565b606091505b509150915081610f9657805160208201fd5b6001600160a01b0385166108011480610fb957506001600160a01b038516610802145b80610fce57506001600160a01b03851661081b145b15610ff4575f81806020019051810190610fe891906117c1565b9450610ff89350505050565b9150505b92915050565b5f5f83601f84011261100e575f5ffd5b5081356001600160401b03811115611024575f5ffd5b60208301915083602082850101111561103b575f5ffd5b9250929050565b5f5f5f60408486031215611054575f5ffd5b8335925060208401356001600160401b03811115611070575f5ffd5b61107c86828701610ffe565b9497909650939450505050565b5f5f5f5f5f6060868803121561109d575f5ffd5b85356001600160401b038111156110b2575f5ffd5b6110be88828901610ffe565b90965094505060208601356001600160401b038111156110dc575f5ffd5b6110e888828901610ffe565b96999598509660400135949350505050565b5f5f6040838503121561110b575f5ffd5b50508035926020909101359150565b5f81518084528060208401602086015e5f602082860101526020601f19601f83011685010191505092915050565b6001600160a01b03831681526040602082018190525f9061116b9083018461111a565b949350505050565b5f60208284031215611183575f5ffd5b5035919050565b6001600160a01b038a168152610120602082018190525f906111ae9083018b61111a565b82810360408401526111c0818b61111a565b905088606084015287608084015286151560a084015285151560c084015282810360e08401526111f0818661111a565b915050826101008301529a9950505050505050505050565b6001600160a01b038b168152610140602082018190525f9061122c9083018c61111a565b828103604084015261123e818c61111a565b905089606084015288608084015287151560a084015286151560c08401528560e08401528461010084015282810361012084015261127c818561111a565b9d9c50505050505050505050505050565b60208082526010908201526f189bdd5b9d1e481b9bdd08199bdd5b9960821b604082015260600190565b602080825260119082015270185b1c9958591e48199a5b985b1a5e9959607a1b604082015260600190565b634e487b7160e01b5f52604160045260245ffd5b600181811c9082168061130a57607f821691505b60208210810361132857634e487b7160e01b5f52602260045260245ffd5b50919050565b601f82111561137557805f5260205f20601f840160051c810160208510156113535750805b601f840160051c820191505b81811015611372575f815560010161135f565b50505b505050565b81516001600160401b03811115611393576113936112e2565b6113a7816113a184546112f6565b8461132e565b6020601f8211600181146113d9575f83156113c25750848201515b5f19600385901b1c1916600184901b178455611372565b5f84815260208120601f198516915b8281101561140857878501518255602094850194600190920191016113e8565b508482101561142557868401515f19600387901b60f8161c191681555b50505050600190811b01905550565b634e487b7160e01b5f52601160045260245ffd5b81810381811115610ff857610ff8611434565b5f6001820161146c5761146c611434565b5060010190565b6001600160401b0383111561148a5761148a6112e2565b61149e8361149883546112f6565b8361132e565b5f601f8411600181146114cf575f85156114b85750838201355b5f19600387901b1c1916600186901b178355611372565b5f83815260208120601f198716915b828110156114fe57868501358255602094850194600190920191016114de565b508682101561151a575f1960f88860031b161c19848701351681555b505060018560011b0183555050505050565b60608152836060820152838560808301375f608085830101525f6080601f19601f870116830101905083602083015282604083015295945050505050565b634e487b7160e01b5f52603260045260245ffd5b5f82601f83011261158d575f5ffd5b8151602083015f5f6001600160401b038411156115ac576115ac6112e2565b50604051601f19601f85018116603f011681018181106001600160401b03821117156115da576115da6112e2565b6040528381529050808284018710156115f1575f5ffd5b8383602083015e5f602085830101528094505050505092915050565b5f6060828403121561161d575f5ffd5b604051606081016001600160401b038111828210171561163f5761163f6112e2565b806040525080915082516001600160401b0381111561165c575f5ffd5b6116688582860161157e565b82525060208301516001600160401b03811115611683575f5ffd5b61168f8582860161157e565b60208301525060408301516001600160401b038111156116ad575f5ffd5b6116b98582860161157e565b6040830152505092915050565b5f5f5f5f5f60a086880312156116da575f5ffd5b855180151581146116e9575f5ffd5b60208701519095506001600160401b03811115611704575f5ffd5b6117108882890161157e565b94505060408601516001600160401b0381111561172b575f5ffd5b6117378882890161157e565b93505060608601516001600160401b03811115611752575f5ffd5b61175e8882890161157e565b92505060808601516001600160401b03811115611779575f5ffd5b6117858882890161160d565b9150509295509295909350565b602081525f6117a4602083018461111a565b9392505050565b5f82518060208501845e5f920191825250919050565b5f5f604083850312156117d2575f5ffd5b82516001600160401b038111156117e7575f5ffd5b6117f38582860161157e565b92505060208301516001600160401b0381111561180e575f5ffd5b61181a8582860161157e565b915050925092905056fea26469706673582212207ed99955bfc83a474c0678af565ab7fed575ee685f9bc27ca778c154021a582364736f6c634300081c0033",
  "linkReferences": {},
  "deployedLinkReferences": {},
  "immutableReferences": {},
  "inputSourceName": "project/contracts/AIJudge.sol",
  "buildInfoId": "solc-0_8_28-bca6ead33b556aa21b9f8c6c912a87307ae3b1e4"
}