{
  "_format": "hh3-artifact-1",
  "contractName": "AIJudge",
  "sourceName": "contracts/AIJudge.sol",
  "abi": [
    {
      "anonymous": false,
      "inputs": [
        {
          "indexed": true,
          "internalType": "uint256",
          "name": "bountyId",
          "type": "uint256"
        },
        {
          "indexed": false,
          "internalType": "bytes",
          "name": "aiReview",
          "type": "bytes"
        }
      ],
      "name": "AllAnswersJudged",
      "type": "event"
    },
    {
      "anonymous": false,
      "inputs": [
        {
          "indexed": true,
          "internalType": "uint256",
          "name": "bountyId",
          "type": "uint256"
        },
        {
          "indexed": true,
          "internalType": "uint256",
          "name": "submissionIndex",
          "type": "uint256"
        },
        {
          "indexed": true,
          "internalType": "address",
          "name": "submitter",
          "type": "address"
        }
      ],
      "name": "AnswerRevealed",
      "type": "event"
    },
    {
      "anonymous": false,
      "inputs": [
        {
          "indexed": true,
          "internalType": "uint256",
          "name": "bountyId",
          "type": "uint256"
        },
        {
          "indexed": true,
          "internalType": "address",
          "name": "owner",
          "type": "address"
        },
        {
          "indexed": false,
          "internalType": "string",
          "name": "title",
          "type": "string"
        },
        {
          "indexed": false,
          "internalType": "uint256",
          "name": "reward",
          "type": "uint256"
        },
        {
          "indexed": false,
          "internalType": "uint256",
          "name": "commitDeadline",
          "type": "uint256"
        },
        {
          "indexed": false,
          "internalType": "uint256",
          "name": "revealDeadline",
          "type": "uint256"
        }
      ],
      "name": "BountyCreated",
      "type": "event"
    },
    {
      "anonymous": false,
      "inputs": [
        {
          "indexed": true,
          "internalType": "uint256",
          "name": "bountyId",
          "type": "uint256"
        },
        {
          "indexed": true,
          "internalType": "uint256",
          "name": "submissionIndex",
          "type": "uint256"
        },
        {
          "indexed": true,
          "internalType": "address",
          "name": "submitter",
          "type": "address"
        }
      ],
      "name": "CommitmentSubmitted",
      "type": "event"
    },
    {
      "anonymous": false,
      "inputs": [
        {
          "indexed": true,
          "internalType": "uint256",
          "name": "bountyId",
          "type": "uint256"
        },
        {
          "indexed": true,
          "internalType": "uint256",
          "name": "winnerIndex",
          "type": "uint256"
        },
        {
          "indexed": true,
          "internalType": "address",
          "name": "winner",
          "type": "address"
        },
        {
          "indexed": false,
          "internalType": "uint256",
          "name": "reward",
          "type": "uint256"
        }
      ],
      "name": "WinnerFinalized",
      "type": "event"
    },
    {
      "inputs": [],
      "name": "MAX_ANSWER_LENGTH",
      "outputs": [
        {
          "internalType": "uint256",
          "name": "",
          "type": "uint256"
        }
      ],
      "stateMutability": "view",
      "type": "function"
    },
    {
      "inputs": [],
      "name": "MAX_SUBMISSIONS",
      "outputs": [
        {
          "internalType": "uint256",
          "name": "",
          "type": "uint256"
        }
      ],
      "stateMutability": "view",
      "type": "function"
    },
    {
      "inputs": [
        {
          "internalType": "uint256",
          "name": "",
          "type": "uint256"
        }
      ],
      "name": "bounties",
      "outputs": [
        {
          "internalType": "address",
          "name": "owner",
          "type": "address"
        },
        {
          "internalType": "string",
          "name": "title",
          "type": "string"
        },
        {
          "internalType": "string",
          "name": "rubric",
          "type": "string"
        },
        {
          "internalType": "uint256",
          "name": "reward",
          "type": "uint256"
        },
        {
          "internalType": "uint256",
          "name": "commitDeadline",
          "type": "uint256"
        },
        {
          "internalType": "uint256",
          "name": "revealDeadline",
          "type": "uint256"
        },
        {
          "internalType": "bool",
          "name": "judged",
          "type": "bool"
        },
        {
          "internalType": "bool",
          "name": "finalized",
          "type": "bool"
        },
        {
          "internalType": "bytes",
          "name": "aiReview",
          "type": "bytes"
        },
        {
          "internalType": "uint256",
          "name": "winnerIndex",
          "type": "uint256"
        }
      ],
      "stateMutability": "view",
      "type": "function"
    },
    {
      "inputs": [
        {
          "internalType": "string",
          "name": "answer",
          "type": "string"
        },
        {
          "internalType": "bytes32",
          "name": "salt",
          "type": "bytes32"
        },
        {
          "internalType": "address",
          "name": "submitter",
          "type": "address"
        },
        {
          "internalType": "uint256",
          "name": "bountyId",
          "type": "uint256"
        }
      ],
      "name": "computeCommitment",
      "outputs": [
        {
          "internalType": "bytes32",
          "name": "",
          "type": "bytes32"
        }
      ],
      "stateMutability": "pure",
      "type": "function"
    },
    {
      "inputs": [
        {
          "internalType": "string",
          "name": "title",
          "type": "string"
        },
        {
          "internalType": "string",
          "name": "rubric",
          "type": "string"
        },
        {
          "internalType": "uint256",
          "name": "commitDeadline",
          "type": "uint256"
        },
        {
          "internalType": "uint256",
          "name": "revealDeadline",
          "type": "uint256"
        }
      ],
      "name": "createBounty",
      "outputs": [
        {
          "internalType": "uint256",
          "name": "bountyId",
          "type": "uint256"
        }
      ],
      "stateMutability": "payable",
      "type": "function"
    },
    {
      "inputs": [
        {
          "internalType": "uint256",
          "name": "bountyId",
          "type": "uint256"
        },
        {
          "internalType": "uint256",
          "name": "winnerIndex",
          "type": "uint256"
        }
      ],
      "name": "finalizeWinner",
      "outputs": [],
      "stateMutability": "nonpayable",
      "type": "function"
    },
    {
      "inputs": [
        {
          "internalType": "uint256",
          "name": "bountyId",
          "type": "uint256"
        }
      ],
      "name": "getBounty",
      "outputs": [
        {
          "internalType": "address",
          "name": "owner",
          "type": "address"
        },
        {
          "internalType": "string",
          "name": "title",
          "type": "string"
        },
        {
          "internalType": "string",
          "name": "rubric",
          "type": "string"
        },
        {
          "internalType": "uint256",
          "name": "reward",
          "type": "uint256"
        },
        {
          "internalType": "uint256",
          "name": "commitDeadline",
          "type": "uint256"
        },
        {
          "internalType": "uint256",
          "name": "revealDeadline",
          "type": "uint256"
        },
        {
          "internalType": "bool",
          "name": "judged",
          "type": "bool"
        },
        {
          "internalType": "bool",
          "name": "finalized",
          "type": "bool"
        },
        {
          "internalType": "uint256",
          "name": "submissionCount",
          "type": "uint256"
        },
        {
          "internalType": "uint256",
          "name": "winnerIndex",
          "type": "uint256"
        },
        {
          "internalType": "bytes",
          "name": "aiReview",
          "type": "bytes"
        }
      ],
      "stateMutability": "view",
      "type": "function"
    },
    {
      "inputs": [
        {
          "internalType": "uint256",
          "name": "bountyId",
          "type": "uint256"
        }
      ],
      "name": "getRevealedCount",
      "outputs": [
        {
          "internalType": "uint256",
          "name": "",
          "type": "uint256"
        }
      ],
      "stateMutability": "view",
      "type": "function"
    },
    {
      "inputs": [
        {
          "internalType": "uint256",
          "name": "bountyId",
          "type": "uint256"
        },
        {
          "internalType": "uint256",
          "name": "index",
          "type": "uint256"
        }
      ],
      "name": "getSubmission",
      "outputs": [
        {
          "internalType": "address",
          "name": "submitter",
          "type": "address"
        },
        {
          "internalType": "bytes32",
          "name": "commitment",
          "type": "bytes32"
        },
        {
          "internalType": "bool",
          "name": "revealed",
          "type": "bool"
        },
        {
          "internalType": "string",
          "name": "answer",
          "type": "string"
        }
      ],
      "stateMutability": "view",
      "type": "function"
    },
    {
      "inputs": [
        {
          "internalType": "uint256",
          "name": "bountyId",
          "type": "uint256"
        },
        {
          "internalType": "bytes",
          "name": "llmInput",
          "type": "bytes"
        }
      ],
      "name": "judgeAll",
      "outputs": [],
      "stateMutability": "nonpayable",
      "type": "function"
    },
    {
      "inputs": [],
      "name": "nextBountyId",
      "outputs": [
        {
          "internalType": "uint256",
          "name": "",
          "type": "uint256"
        }
      ],
      "stateMutability": "view",
      "type": "function"
    },
    {
      "inputs": [
        {
          "internalType": "uint256",
          "name": "bountyId",
          "type": "uint256"
        },
        {
          "internalType": "string",
          "name": "answer",
          "type": "string"
        },
        {
          "internalType": "bytes32",
          "name": "salt",
          "type": "bytes32"
        }
      ],
      "name": "revealAnswer",
      "outputs": [],
      "stateMutability": "nonpayable",
      "type": "function"
    },
    {
      "inputs": [
        {
          "internalType": "uint256",
          "name": "bountyId",
          "type": "uint256"
        },
        {
          "internalType": "bytes32",
          "name": "commitment",
          "type": "bytes32"
        }
      ],
      "name": "submitCommitment",
      "outputs": [],
      "stateMutability": "nonpayable",
      "type": "function"
    }
  ],
  "bytecode": "0x608060405260015f81905580546001600160a01b03191673532f0df0896f353d8c3dd8cc134e8129da2a39481790553480156038575f5ffd5b5061218e806100465f395ff3fe6080604052600436106100bf575f3560e01c8063d8964ee91161007c578063e6a3d9dc11610057578063e6a3d9dc146101fe578063ee8c4bbf1461021d578063fd14fad414610253578063fd3a832914610267575f5ffd5b8063d8964ee914610197578063dc2f8744146101b6578063e31202c0146101eb575f5ffd5b80635a7722f1146100c35780638e789683146100e4578063afa686ff1461010b578063b7ed70711461012a578063cb655fb614610159578063d5198a7114610178575b5f5ffd5b3480156100ce575f5ffd5b506100e26100dd36600461181f565b61027c565b005b3480156100ef575f5ffd5b506100f8600a81565b6040519081526020015b60405180910390f35b348015610116575f5ffd5b506100f861012536600461183f565b61057e565b348015610135575f5ffd5b5061014961014436600461181f565b610620565b6040516101029493929190611884565b348015610164575f5ffd5b506100f8610173366004611900565b610797565b348015610183575f5ffd5b506100e261019236600461196c565b6107d2565b3480156101a2575f5ffd5b506100e26101b13660046119ba565b610b7d565b3480156101c1575f5ffd5b506101d56101d036600461183f565b610e50565b6040516101029a99989796959493929190611a01565b6100f86101f9366004611a87565b611045565b348015610209575f5ffd5b506100e261021836600461181f565b6111e1565b348015610228575f5ffd5b5061023c61023736600461183f565b6114dc565b6040516101029b9a99989796959493929190611b02565b34801561025e575f5ffd5b506100f85f5481565b348015610272575f5ffd5b506100f86107d081565b5f8281526002602052604090205482906001600160a01b03166102ba5760405162461bcd60e51b81526004016102b190611b8f565b60405180910390fd5b5f8381526002602052604090205483906001600160a01b031633146103145760405162461bcd60e51b815260206004820152601060248201526f3737ba103137bab73a3c9037bbb732b960811b60448201526064016102b1565b5f848152600260205260409020600681015460ff166103665760405162461bcd60e51b815260206004820152600e60248201526d1b9bdd081a9d5919d959081e595d60921b60448201526064016102b1565b6006810154610100900460ff16156103905760405162461bcd60e51b81526004016102b190611bb9565b600981015484106103da5760405162461bcd60e51b81526020600482015260146024820152730d2dcecc2d8d2c840eed2dcdccae440d2dcc8caf60631b60448201526064016102b1565b8060090184815481106103ef576103ef611be4565b5f91825260209091206002600490920201015460ff166104515760405162461bcd60e51b815260206004820152601960248201527f77696e6e6572206d75737420686176652072657665616c65640000000000000060448201526064016102b1565b60068101805461ff001916610100179055600881018490556009810180545f91908690811061048257610482611be4565b5f918252602082206004919091020154600384018054908390556040516001600160a01b0390921693509190839083908381818185875af1925050503d805f81146104e8576040519150601f19603f3d011682016040523d82523d5f602084013e6104ed565b606091505b505090508061052f5760405162461bcd60e51b815260206004820152600e60248201526d1c185e5b595b9d0819985a5b195960921b60448201526064016102b1565b826001600160a01b031687897f2eb0120759ae6dd1505f3f092609ec7e75433fb2401ad648ebeb5bd4bd55e5b68560405161056c91815260200190565b60405180910390a45050505050505050565b5f8181526002602052604081205482906001600160a01b03166105b35760405162461bcd60e51b81526004016102b190611b8f565b5f83815260026020526040812090805b6009830154811015610615578260090181815481106105e4576105e4611be4565b5f91825260209091206002600490920201015460ff161561060d578161060981611c0c565b9250505b6001016105c3565b509250505b50919050565b5f828152600260205260408120548190819060609086906001600160a01b031661065c5760405162461bcd60e51b81526004016102b190611b8f565b5f878152600260205260409020600981015487106106ac5760405162461bcd60e51b815260206004820152600d60248201526c0d2dcecc2d8d2c840d2dcc8caf609b1b60448201526064016102b1565b5f8160090188815481106106c2576106c2611be4565b5f91825260209091206004909102018054600182015460028301546003840180549495506001600160a01b0390931693919260ff90911691819061070590611c24565b80601f016020809104026020016040519081016040528092919081815260200182805461073190611c24565b801561077c5780601f106107535761010080835404028352916020019161077c565b820191905f5260205f20905b81548152906001019060200180831161075f57829003601f168201915b50505050509050965096509650965050505092959194509250565b5f85858585856040516020016107b1959493929190611c56565b60405160208183030381529060405280519060200120905095945050505050565b5f8481526002602052604090205484906001600160a01b03166108075760405162461bcd60e51b81526004016102b190611b8f565b5f858152600260205260409020600481015442116108675760405162461bcd60e51b815260206004820152601960248201527f636f6d6d6974207068617365207374696c6c206163746976650000000000000060448201526064016102b1565b80600501544211156108b15760405162461bcd60e51b81526020600482015260136024820152721c995d99585b081c1a185cd94818db1bdcd959606a1b60448201526064016102b1565b6107d08411156108f55760405162461bcd60e51b815260206004820152600f60248201526e616e7377657220746f6f206c6f6e6760881b60448201526064016102b1565b836109315760405162461bcd60e51b815260206004820152600c60248201526b32b6b83a3c9030b739bbb2b960a11b60448201526064016102b1565b5f195f5b600983015481101561098e57336001600160a01b031683600901828154811061096057610960611be4565b5f9182526020909120600490910201546001600160a01b0316036109865780915061098e565b600101610935565b505f1981036109d55760405162461bcd60e51b81526020600482015260136024820152721b9bc818dbdb5b5a5d1b595b9d08199bdd5b99606a1b60448201526064016102b1565b8160090181815481106109ea576109ea611be4565b5f91825260209091206002600490920201015460ff1615610a405760405162461bcd60e51b815260206004820152601060248201526f185b1c9958591e481c995d99585b195960821b60448201526064016102b1565b5f868686338b604051602001610a5a959493929190611c56565b604051602081830303815290604052805190602001209050826009018281548110610a8757610a87611be4565b905f5260205f209060040201600101548114610ad55760405162461bcd60e51b815260206004820152600d60248201526c0d0c2e6d040dad2e6dac2e8c6d609b1b60448201526064016102b1565b6001836009018381548110610aec57610aec611be4565b905f5260205f2090600402016002015f6101000a81548160ff0219169083151502179055508686846009018481548110610b2857610b28611be4565b905f5260205f2090600402016003019182610b44929190611ce7565b50604051339083908a907f30cd907c52cb0d98c4502ca97784ad8dd7813786ea1a7cce6e1594fe96c20b16905f90a45050505050505050565b5f8381526002602052604090205483906001600160a01b0316610bb25760405162461bcd60e51b81526004016102b190611b8f565b5f8481526002602052604090205484906001600160a01b03163314610c0c5760405162461bcd60e51b815260206004820152601060248201526f3737ba103137bab73a3c9037bbb732b960811b60448201526064016102b1565b5f858152600260205260409020600681015460ff1615610c5f5760405162461bcd60e51b815260206004820152600e60248201526d185b1c9958591e481a9d5919d95960921b60448201526064016102b1565b6006810154610100900460ff1615610c895760405162461bcd60e51b81526004016102b190611bb9565b80600401544211610cd45760405162461bcd60e51b815260206004820152601560248201527431b7b6b6b4ba10383430b9b2903737ba1037bb32b960591b60448201526064016102b1565b5f805b6009830154811015610d2457826009018181548110610cf857610cf8611be4565b5f91825260209091206002600490920201015460ff1615610d1c5760019150610d24565b600101610cd7565b5080610d685760405162461bcd60e51b81526020600482015260136024820152726e6f2072657665616c656420616e737765727360681b60448201526064016102b1565b5f610daa61080288888080601f0160208091040260200160405190810160405280939291908181526020018383808284375f9201919091525061174b92505050565b90505f5f5f83806020019051810190610dc39190611ee8565b509350509250925082158190610dec5760405162461bcd60e51b81526004016102b19190611fb4565b5060068601805460ff1916600117905560078601610e0a8382611fcd565b508a7fb51288ae628dca25614026175dc22a78631acc1a31f034c68c3fa241ca0fd05c83604051610e3b9190611fb4565b60405180910390a25050505050505050505050565b60026020525f9081526040902080546001820180546001600160a01b039092169291610e7b90611c24565b80601f0160208091040260200160405190810160405280929190818152602001828054610ea790611c24565b8015610ef25780601f10610ec957610100808354040283529160200191610ef2565b820191905f5260205f20905b815481529060010190602001808311610ed557829003601f168201915b505050505090806002018054610f0790611c24565b80601f0160208091040260200160405190810160405280929190818152602001828054610f3390611c24565b8015610f7e5780601f10610f5557610100808354040283529160200191610f7e565b820191905f5260205f20905b815481529060010190602001808311610f6157829003601f168201915b50505050600383015460048401546005850154600686015460078701805496979496939550919360ff8083169461010090930416929091610fbe90611c24565b80601f0160208091040260200160405190810160405280929190818152602001828054610fea90611c24565b80156110355780601f1061100c57610100808354040283529160200191611035565b820191905f5260205f20905b81548152906001019060200180831161101857829003601f168201915b505050505090806008015490508a565b5f5f34116110875760405162461bcd60e51b815260206004820152600f60248201526e1c995dd85c99081c995c5d5a5c9959608a1b60448201526064016102b1565b4283116110d65760405162461bcd60e51b815260206004820152601e60248201527f636f6d6d697420646561646c696e65206d75737420626520667574757265000060448201526064016102b1565b8282116111255760405162461bcd60e51b815260206004820152601b60248201527f72657665616c206d75737420626520616674657220636f6d6d6974000000000060448201526064016102b1565b5f8054908061113383611c0c565b909155505f81815260026020526040902080546001600160a01b0319163317815590915060018101611166888a83611ce7565b5060028101611176868883611ce7565b50346003820181905560048201859055600582018490555f196008830155604051339184917f736ab752f6714f3191bc874ebe0b24d2daa1e5a5281882b7c59d90d19c45fda4916111ce918d918d918b908b90612087565b60405180910390a3509695505050505050565b5f8281526002602052604090205482906001600160a01b03166112165760405162461bcd60e51b81526004016102b190611b8f565b5f838152600260205260409020600481015442111561126d5760405162461bcd60e51b815260206004820152601360248201527218dbdb5b5a5d081c1a185cd94818db1bdcd959606a1b60448201526064016102b1565b600681015460ff16156112b35760405162461bcd60e51b815260206004820152600e60248201526d185b1c9958591e481a9d5919d95960921b60448201526064016102b1565b6006810154610100900460ff16156112dd5760405162461bcd60e51b81526004016102b190611bb9565b6009810154600a116113315760405162461bcd60e51b815260206004820152601760248201527f6d6178207375626d697373696f6e73207265616368656400000000000000000060448201526064016102b1565b826113715760405162461bcd60e51b815260206004820152601060248201526f195b5c1d1e4818dbdb5b5a5d1b595b9d60821b60448201526064016102b1565b5f5b600982015481101561140057336001600160a01b031682600901828154811061139e5761139e611be4565b5f9182526020909120600490910201546001600160a01b0316036113f85760405162461bcd60e51b8152602060048201526011602482015270185b1c9958591e4818dbdb5b5a5d1d1959607a1b60448201526064016102b1565b600101611373565b506040805160808101825233815260208082018681525f8385018181528551808501909652818652606085019586526009870180546001808201835591845294909220855160049095020180546001600160a01b0319166001600160a01b039095169490941784559151908301555160028201805460ff1916911515919091179055915190919060038201906114969082611fcd565b505050600981015433906114ac906001906120cc565b60405186907f94cdee4274a7d9f10a75de5b2a8af2dc478a097d4829621fc779705fbeb040c2905f90a450505050565b5f818152600260205260408120546060908190839081908190819081908190819088908c906001600160a01b03166115265760405162461bcd60e51b81526004016102b190611b8f565b5f8d8152600260208190526040909120805460038201546004830154600584015460068501546009860154600887015460018801805498996001600160a01b039098169890978a019695949360ff808216946101009092041692909160078c01908a9061159290611c24565b80601f01602080910402602001604051908101604052809291908181526020018280546115be90611c24565b80156116095780601f106115e057610100808354040283529160200191611609565b820191905f5260205f20905b8154815290600101906020018083116115ec57829003601f168201915b5050505050995088805461161c90611c24565b80601f016020809104026020016040519081016040528092919081815260200182805461164890611c24565b80156116935780601f1061166a57610100808354040283529160200191611693565b820191905f5260205f20905b81548152906001019060200180831161167657829003601f168201915b505050505098508080546116a690611c24565b80601f01602080910402602001604051908101604052809291908181526020018280546116d290611c24565b801561171d5780601f106116f45761010080835404028352916020019161171d565b820191905f5260205f20905b81548152906001019060200180831161170057829003601f168201915b505050505090509c509c509c509c509c509c509c509c509c509c509c50505091939597999b90929496989a50565b60605f5f846001600160a01b03168460405161176791906120df565b5f604051808303815f865af19150503d805f81146117a0576040519150601f19603f3d011682016040523d82523d5f602084013e6117a5565b606091505b5091509150816117b757805160208201fd5b6001600160a01b03851661080114806117da57506001600160a01b038516610802145b806117ef57506001600160a01b03851661081b145b15611815575f8180602001905181019061180991906120f5565b94506118199350505050565b9150505b92915050565b5f5f60408385031215611830575f5ffd5b50508035926020909101359150565b5f6020828403121561184f575f5ffd5b5035919050565b5f81518084528060208401602086015e5f602082860101526020601f19601f83011685010191505092915050565b60018060a01b03851681528360208201528215156040820152608060608201525f6118b26080830184611856565b9695505050505050565b5f5f83601f8401126118cc575f5ffd5b5081356001600160401b038111156118e2575f5ffd5b6020830191508360208285010111156118f9575f5ffd5b9250929050565b5f5f5f5f5f60808688031215611914575f5ffd5b85356001600160401b03811115611929575f5ffd5b611935888289016118bc565b9096509450506020860135925060408601356001600160a01b038116811461195b575f5ffd5b949793965091946060013592915050565b5f5f5f5f6060858703121561197f575f5ffd5b8435935060208501356001600160401b0381111561199b575f5ffd5b6119a7878288016118bc565b9598909750949560400135949350505050565b5f5f5f604084860312156119cc575f5ffd5b8335925060208401356001600160401b038111156119e8575f5ffd5b6119f4868287016118bc565b9497909650939450505050565b6001600160a01b038b168152610140602082018190525f90611a259083018c611856565b8281036040840152611a37818c611856565b90508960608401528860808401528760a084015286151560c084015285151560e0840152828103610100840152611a6e8186611856565b915050826101208301529b9a5050505050505050505050565b5f5f5f5f5f5f60808789031215611a9c575f5ffd5b86356001600160401b03811115611ab1575f5ffd5b611abd89828a016118bc565b90975095505060208701356001600160401b03811115611adb575f5ffd5b611ae789828a016118bc565b979a9699509760408101359660609091013595509350505050565b6001600160a01b038c168152610160602082018190525f90611b269083018d611856565b8281036040840152611b38818d611856565b90508a60608401528960808401528860a084015287151560c084015286151560e08401528561010084015284610120840152828103610140840152611b7d8185611856565b9e9d5050505050505050505050505050565b60208082526010908201526f189bdd5b9d1e481b9bdd08199bdd5b9960821b604082015260600190565b602080825260119082015270185b1c9958591e48199a5b985b1a5e9959607a1b604082015260600190565b634e487b7160e01b5f52603260045260245ffd5b634e487b7160e01b5f52601160045260245ffd5b5f60018201611c1d57611c1d611bf8565b5060010190565b600181811c90821680611c3857607f821691505b60208210810361061a57634e487b7160e01b5f52602260045260245ffd5b8486823790930191825260601b6bffffffffffffffffffffffff191660208201526034810191909152605401919050565b634e487b7160e01b5f52604160045260245ffd5b601f821115611ce257805f5260205f20601f840160051c81016020851015611cc05750805b601f840160051c820191505b81811015611cdf575f8155600101611ccc565b50505b505050565b6001600160401b03831115611cfe57611cfe611c87565b611d1283611d0c8354611c24565b83611c9b565b5f601f841160018114611d43575f8515611d2c5750838201355b5f19600387901b1c1916600186901b178355611cdf565b5f83815260208120601f198716915b82811015611d725786850135825560209485019460019092019101611d52565b5086821015611d8e575f1960f88860031b161c19848701351681555b505060018560011b0183555050505050565b5f82601f830112611daf575f5ffd5b8151602083015f5f6001600160401b03841115611dce57611dce611c87565b50604051601f19601f85018116603f011681018181106001600160401b0382111715611dfc57611dfc611c87565b604052838152905080828401871015611e13575f5ffd5b8383602083015e5f602085830101528094505050505092915050565b5f60608284031215611e3f575f5ffd5b604051606081016001600160401b0381118282101715611e6157611e61611c87565b806040525080915082516001600160401b03811115611e7e575f5ffd5b611e8a85828601611da0565b82525060208301516001600160401b03811115611ea5575f5ffd5b611eb185828601611da0565b60208301525060408301516001600160401b03811115611ecf575f5ffd5b611edb85828601611da0565b6040830152505092915050565b5f5f5f5f5f60a08688031215611efc575f5ffd5b85518015158114611f0b575f5ffd5b60208701519095506001600160401b03811115611f26575f5ffd5b611f3288828901611da0565b94505060408601516001600160401b03811115611f4d575f5ffd5b611f5988828901611da0565b93505060608601516001600160401b03811115611f74575f5ffd5b611f8088828901611da0565b92505060808601516001600160401b03811115611f9b575f5ffd5b611fa788828901611e2f565b9150509295509295909350565b602081525f611fc66020830184611856565b9392505050565b81516001600160401b03811115611fe657611fe6611c87565b611ffa81611ff48454611c24565b84611c9b565b6020601f82116001811461202c575f83156120155750848201515b5f19600385901b1c1916600184901b178455611cdf565b5f84815260208120601f198516915b8281101561205b578785015182556020948501946001909201910161203b565b508482101561207857868401515f19600387901b60f8161c191681555b50505050600190811b01905550565b60808152846080820152848660a08301375f60a086830101525f60a0601f19601f88011683010190508460208301528360408301528260608301529695505050505050565b8181038181111561181957611819611bf8565b5f82518060208501845e5f920191825250919050565b5f5f60408385031215612106575f5ffd5b82516001600160401b0381111561211b575f5ffd5b61212785828601611da0565b92505060208301516001600160401b03811115612142575f5ffd5b61214e85828601611da0565b915050925092905056fea2646970667358221220eea9e79ee11aff7505b7125605175996205ab456f392dab036b0b720e09a173664736f6c634300081c0033",
  "linkReferences": {},
  "deployedLinkReferences": {},
  "immutableReferences": {},
  "inputSourceName": "project/contracts/AIJudge.sol",
  "buildInfoId": "solc-0_8_28-8564bb97a2f809a37e91ef65036925e4692f55ef"
}