{
  "_format": "hh3-artifact-1",
  "contractName": "CommitRevealBounty",
  "sourceName": "contracts/CommitRevealBounty.sol",
  "abi": [
    {
      "anonymous": false,
      "inputs": [
        {
          "indexed": true,
          "internalType": "uint256",
          "name": "bountyId",
          "type": "uint256"
        },
        {
          "indexed": false,
          "internalType": "bytes",
          "name": "aiReview",
          "type": "bytes"
        }
      ],
      "name": "AllAnswersJudged",
      "type": "event"
    },
    {
      "anonymous": false,
      "inputs": [
        {
          "indexed": true,
          "internalType": "uint256",
          "name": "bountyId",
          "type": "uint256"
        },
        {
          "indexed": true,
          "internalType": "uint256",
          "name": "commitmentIndex",
          "type": "uint256"
        },
        {
          "indexed": true,
          "internalType": "address",
          "name": "submitter",
          "type": "address"
        }
      ],
      "name": "AnswerRevealed",
      "type": "event"
    },
    {
      "anonymous": false,
      "inputs": [
        {
          "indexed": true,
          "internalType": "uint256",
          "name": "bountyId",
          "type": "uint256"
        },
        {
          "indexed": true,
          "internalType": "address",
          "name": "owner",
          "type": "address"
        },
        {
          "indexed": false,
          "internalType": "string",
          "name": "title",
          "type": "string"
        },
        {
          "indexed": false,
          "internalType": "uint256",
          "name": "reward",
          "type": "uint256"
        },
        {
          "indexed": false,
          "internalType": "uint256",
          "name": "commitDeadline",
          "type": "uint256"
        },
        {
          "indexed": false,
          "internalType": "uint256",
          "name": "revealDeadline",
          "type": "uint256"
        }
      ],
      "name": "BountyCreated",
      "type": "event"
    },
    {
      "anonymous": false,
      "inputs": [
        {
          "indexed": true,
          "internalType": "uint256",
          "name": "bountyId",
          "type": "uint256"
        },
        {
          "indexed": true,
          "internalType": "uint256",
          "name": "commitmentIndex",
          "type": "uint256"
        },
        {
          "indexed": true,
          "internalType": "address",
          "name": "submitter",
          "type": "address"
        }
      ],
      "name": "CommitmentSubmitted",
      "type": "event"
    },
    {
      "anonymous": false,
      "inputs": [
        {
          "indexed": true,
          "internalType": "uint256",
          "name": "bountyId",
          "type": "uint256"
        },
        {
          "indexed": true,
          "internalType": "uint256",
          "name": "winnerIndex",
          "type": "uint256"
        },
        {
          "indexed": true,
          "internalType": "address",
          "name": "winner",
          "type": "address"
        },
        {
          "indexed": false,
          "internalType": "uint256",
          "name": "reward",
          "type": "uint256"
        }
      ],
      "name": "WinnerFinalized",
      "type": "event"
    },
    {
      "inputs": [],
      "name": "MAX_ANSWER_LENGTH",
      "outputs": [
        {
          "internalType": "uint256",
          "name": "",
          "type": "uint256"
        }
      ],
      "stateMutability": "view",
      "type": "function"
    },
    {
      "inputs": [],
      "name": "MAX_SUBMISSIONS",
      "outputs": [
        {
          "internalType": "uint256",
          "name": "",
          "type": "uint256"
        }
      ],
      "stateMutability": "view",
      "type": "function"
    },
    {
      "inputs": [
        {
          "internalType": "uint256",
          "name": "",
          "type": "uint256"
        }
      ],
      "name": "bounties",
      "outputs": [
        {
          "internalType": "address",
          "name": "owner",
          "type": "address"
        },
        {
          "internalType": "string",
          "name": "title",
          "type": "string"
        },
        {
          "internalType": "string",
          "name": "rubric",
          "type": "string"
        },
        {
          "internalType": "uint256",
          "name": "reward",
          "type": "uint256"
        },
        {
          "internalType": "uint256",
          "name": "commitDeadline",
          "type": "uint256"
        },
        {
          "internalType": "uint256",
          "name": "revealDeadline",
          "type": "uint256"
        },
        {
          "internalType": "enum CommitRevealBounty.Phase",
          "name": "phase",
          "type": "uint8"
        },
        {
          "internalType": "bytes",
          "name": "aiReview",
          "type": "bytes"
        },
        {
          "internalType": "uint256",
          "name": "winnerIndex",
          "type": "uint256"
        }
      ],
      "stateMutability": "view",
      "type": "function"
    },
    {
      "inputs": [
        {
          "internalType": "string",
          "name": "answer",
          "type": "string"
        },
        {
          "internalType": "bytes32",
          "name": "salt",
          "type": "bytes32"
        },
        {
          "internalType": "address",
          "name": "submitter",
          "type": "address"
        },
        {
          "internalType": "uint256",
          "name": "bountyId",
          "type": "uint256"
        }
      ],
      "name": "computeCommitment",
      "outputs": [
        {
          "internalType": "bytes32",
          "name": "",
          "type": "bytes32"
        }
      ],
      "stateMutability": "pure",
      "type": "function"
    },
    {
      "inputs": [
        {
          "internalType": "string",
          "name": "title",
          "type": "string"
        },
        {
          "internalType": "string",
          "name": "rubric",
          "type": "string"
        },
        {
          "internalType": "uint256",
          "name": "commitDeadline",
          "type": "uint256"
        },
        {
          "internalType": "uint256",
          "name": "revealDeadline",
          "type": "uint256"
        }
      ],
      "name": "createBounty",
      "outputs": [
        {
          "internalType": "uint256",
          "name": "bountyId",
          "type": "uint256"
        }
      ],
      "stateMutability": "payable",
      "type": "function"
    },
    {
      "inputs": [
        {
          "internalType": "uint256",
          "name": "bountyId",
          "type": "uint256"
        },
        {
          "internalType": "uint256",
          "name": "winnerIndex",
          "type": "uint256"
        }
      ],
      "name": "finalizeWinner",
      "outputs": [],
      "stateMutability": "nonpayable",
      "type": "function"
    },
    {
      "inputs": [
        {
          "internalType": "uint256",
          "name": "bountyId",
          "type": "uint256"
        }
      ],
      "name": "getBounty",
      "outputs": [
        {
          "internalType": "address",
          "name": "owner",
          "type": "address"
        },
        {
          "internalType": "string",
          "name": "title",
          "type": "string"
        },
        {
          "internalType": "string",
          "name": "rubric",
          "type": "string"
        },
        {
          "internalType": "uint256",
          "name": "reward",
          "type": "uint256"
        },
        {
          "internalType": "uint256",
          "name": "commitDeadline",
          "type": "uint256"
        },
        {
          "internalType": "uint256",
          "name": "revealDeadline",
          "type": "uint256"
        },
        {
          "internalType": "enum CommitRevealBounty.Phase",
          "name": "phase",
          "type": "uint8"
        },
        {
          "internalType": "uint256",
          "name": "commitmentCount",
          "type": "uint256"
        },
        {
          "internalType": "uint256",
          "name": "winnerIndex",
          "type": "uint256"
        },
        {
          "internalType": "bytes",
          "name": "aiReview",
          "type": "bytes"
        }
      ],
      "stateMutability": "view",
      "type": "function"
    },
    {
      "inputs": [
        {
          "internalType": "uint256",
          "name": "bountyId",
          "type": "uint256"
        },
        {
          "internalType": "uint256",
          "name": "index",
          "type": "uint256"
        }
      ],
      "name": "getCommitment",
      "outputs": [
        {
          "internalType": "address",
          "name": "submitter",
          "type": "address"
        },
        {
          "internalType": "bytes32",
          "name": "hash",
          "type": "bytes32"
        },
        {
          "internalType": "bool",
          "name": "revealed",
          "type": "bool"
        },
        {
          "internalType": "string",
          "name": "answer",
          "type": "string"
        }
      ],
      "stateMutability": "view",
      "type": "function"
    },
    {
      "inputs": [
        {
          "internalType": "uint256",
          "name": "bountyId",
          "type": "uint256"
        }
      ],
      "name": "getRevealedCount",
      "outputs": [
        {
          "internalType": "uint256",
          "name": "",
          "type": "uint256"
        }
      ],
      "stateMutability": "view",
      "type": "function"
    },
    {
      "inputs": [
        {
          "internalType": "uint256",
          "name": "bountyId",
          "type": "uint256"
        },
        {
          "internalType": "bytes",
          "name": "llmInput",
          "type": "bytes"
        }
      ],
      "name": "judgeAll",
      "outputs": [],
      "stateMutability": "nonpayable",
      "type": "function"
    },
    {
      "inputs": [],
      "name": "nextBountyId",
      "outputs": [
        {
          "internalType": "uint256",
          "name": "",
          "type": "uint256"
        }
      ],
      "stateMutability": "view",
      "type": "function"
    },
    {
      "inputs": [
        {
          "internalType": "uint256",
          "name": "bountyId",
          "type": "uint256"
        },
        {
          "internalType": "string",
          "name": "answer",
          "type": "string"
        },
        {
          "internalType": "bytes32",
          "name": "salt",
          "type": "bytes32"
        }
      ],
      "name": "revealAnswer",
      "outputs": [],
      "stateMutability": "nonpayable",
      "type": "function"
    },
    {
      "inputs": [
        {
          "internalType": "uint256",
          "name": "bountyId",
          "type": "uint256"
        },
        {
          "internalType": "bytes32",
          "name": "commitment",
          "type": "bytes32"
        }
      ],
      "name": "submitCommitment",
      "outputs": [],
      "stateMutability": "nonpayable",
      "type": "function"
    }
  ],
  "bytecode": "0x608060405260015f81905580546001600160a01b03191673532f0df0896f353d8c3dd8cc134e8129da2a39481790553480156038575f5ffd5b506121aa806100465f395ff3fe6080604052600436106100bf575f3560e01c8063d8964ee91161007c578063e6a3d9dc11610057578063e6a3d9dc14610201578063ee8c4bbf14610220578063fd14fad414610255578063fd3a832914610269575f5ffd5b8063d8964ee91461019b578063dc2f8744146101ba578063e31202c0146101ee575f5ffd5b80635a7722f1146100c35780637164f0d6146100e45780638e7896831461011c578063afa686ff1461013e578063cb655fb61461015d578063d5198a711461017c575b5f5ffd5b3480156100ce575f5ffd5b506100e26100dd36600461183c565b61027e565b005b3480156100ef575f5ffd5b506101036100fe36600461183c565b61056a565b604051610113949392919061188a565b60405180910390f35b348015610127575f5ffd5b50610130600a81565b604051908152602001610113565b348015610149575f5ffd5b506101306101583660046118c2565b6106e1565b348015610168575f5ffd5b5061013061017736600461191d565b610783565b348015610187575f5ffd5b506100e2610196366004611989565b6107be565b3480156101a6575f5ffd5b506100e26101b53660046119d7565b610b98565b3480156101c5575f5ffd5b506101d96101d43660046118c2565b610e85565b60405161011399989796959493929190611a52565b6101306101fc366004611ad3565b61106f565b34801561020c575f5ffd5b506100e261021b36600461183c565b611217565b34801561022b575f5ffd5b5061023f61023a3660046118c2565b611509565b6040516101139a99989796959493929190611b4e565b348015610260575f5ffd5b506101305f5481565b348015610274575f5ffd5b506101306107d081565b5f8281526002602052604090205482906001600160a01b03166102bc5760405162461bcd60e51b81526004016102b390611bd6565b60405180910390fd5b5f8381526002602052604090205483906001600160a01b031633146103165760405162461bcd60e51b815260206004820152601060248201526f3737ba103137bab73a3c9037bbb732b960811b60448201526064016102b3565b5f84815260026020819052604090912090600682015460ff16600381111561034057610340611a1e565b1461037e5760405162461bcd60e51b815260206004820152600e60248201526d1b9bdd081a9d5919d959081e595d60921b60448201526064016102b3565b600981015484106103c85760405162461bcd60e51b81526020600482015260146024820152730d2dcecc2d8d2c840eed2dcdccae440d2dcc8caf60631b60448201526064016102b3565b8060090184815481106103dd576103dd611c00565b5f91825260209091206002600490920201015460ff1661043f5760405162461bcd60e51b815260206004820152601960248201527f77696e6e6572206d75737420686176652072657665616c65640000000000000060448201526064016102b3565b60068101805460ff19166003179055600881018490556009810180545f91908690811061046e5761046e611c00565b5f918252602082206004919091020154600384018054908390556040516001600160a01b0390921693509190839083908381818185875af1925050503d805f81146104d4576040519150601f19603f3d011682016040523d82523d5f602084013e6104d9565b606091505b505090508061051b5760405162461bcd60e51b815260206004820152600e60248201526d1c185e5b595b9d0819985a5b195960921b60448201526064016102b3565b826001600160a01b031687897f2eb0120759ae6dd1505f3f092609ec7e75433fb2401ad648ebeb5bd4bd55e5b68560405161055891815260200190565b60405180910390a45050505050505050565b5f828152600260205260408120548190819060609086906001600160a01b03166105a65760405162461bcd60e51b81526004016102b390611bd6565b5f878152600260205260409020600981015487106105f65760405162461bcd60e51b815260206004820152600d60248201526c0d2dcecc2d8d2c840d2dcc8caf609b1b60448201526064016102b3565b5f81600901888154811061060c5761060c611c00565b5f91825260209091206004909102018054600182015460028301546003840180549495506001600160a01b0390931693919260ff90911691819061064f90611c14565b80601f016020809104026020016040519081016040528092919081815260200182805461067b90611c14565b80156106c65780601f1061069d576101008083540402835291602001916106c6565b820191905f5260205f20905b8154815290600101906020018083116106a957829003601f168201915b50505050509050965096509650965050505092959194509250565b5f8181526002602052604081205482906001600160a01b03166107165760405162461bcd60e51b81526004016102b390611bd6565b5f83815260026020526040812090805b60098301548110156107785782600901818154811061074757610747611c00565b5f91825260209091206002600490920201015460ff1615610770578161076c81611c5a565b9250505b600101610726565b509250505b50919050565b5f858585858560405160200161079d959493929190611c72565b60405160208183030381529060405280519060200120905095945050505050565b5f8481526002602052604090205484906001600160a01b03166107f35760405162461bcd60e51b81526004016102b390611bd6565b5f858152600260205260409020600481015442116108535760405162461bcd60e51b815260206004820152601960248201527f636f6d6d6974207068617365207374696c6c206163746976650000000000000060448201526064016102b3565b806005015442111561089d5760405162461bcd60e51b81526020600482015260136024820152721c995d99585b081c1a185cd94818db1bdcd959606a1b60448201526064016102b3565b6107d08411156108e15760405162461bcd60e51b815260206004820152600f60248201526e616e7377657220746f6f206c6f6e6760881b60448201526064016102b3565b8361091d5760405162461bcd60e51b815260206004820152600c60248201526b32b6b83a3c9030b739bbb2b960a11b60448201526064016102b3565b5f600682015460ff16600381111561093757610937611a1e565b0361094c5760068101805460ff191660011790555b5f195f5b60098301548110156109a957336001600160a01b031683600901828154811061097b5761097b611c00565b5f9182526020909120600490910201546001600160a01b0316036109a1578091506109a9565b600101610950565b505f1981036109f05760405162461bcd60e51b81526020600482015260136024820152721b9bc818dbdb5b5a5d1b595b9d08199bdd5b99606a1b60448201526064016102b3565b816009018181548110610a0557610a05611c00565b5f91825260209091206002600490920201015460ff1615610a5b5760405162461bcd60e51b815260206004820152601060248201526f185b1c9958591e481c995d99585b195960821b60448201526064016102b3565b5f868686338b604051602001610a75959493929190611c72565b604051602081830303815290604052805190602001209050826009018281548110610aa257610aa2611c00565b905f5260205f209060040201600101548114610af05760405162461bcd60e51b815260206004820152600d60248201526c0d0c2e6d040dad2e6dac2e8c6d609b1b60448201526064016102b3565b6001836009018381548110610b0757610b07611c00565b905f5260205f2090600402016002015f6101000a81548160ff0219169083151502179055508686846009018481548110610b4357610b43611c00565b905f5260205f2090600402016003019182610b5f929190611d03565b50604051339083908a907f30cd907c52cb0d98c4502ca97784ad8dd7813786ea1a7cce6e1594fe96c20b16905f90a45050505050505050565b5f8381526002602052604090205483906001600160a01b0316610bcd5760405162461bcd60e51b81526004016102b390611bd6565b5f8481526002602052604090205484906001600160a01b03163314610c275760405162461bcd60e51b815260206004820152601060248201526f3737ba103137bab73a3c9037bbb732b960811b60448201526064016102b3565b5f8581526002602052604090206001600682015460ff166003811115610c4f57610c4f611a1e565b1480610c7257505f600682015460ff166003811115610c7057610c70611a1e565b145b610cbe5760405162461bcd60e51b815260206004820152601b60248201527f616c7265616479206a7564676564206f722066696e616c697a6564000000000060448201526064016102b3565b80600401544211610d095760405162461bcd60e51b815260206004820152601560248201527431b7b6b6b4ba10383430b9b2903737ba1037bb32b960591b60448201526064016102b3565b5f805b6009830154811015610d5957826009018181548110610d2d57610d2d611c00565b5f91825260209091206002600490920201015460ff1615610d515760019150610d59565b600101610d0c565b5080610d9d5760405162461bcd60e51b81526020600482015260136024820152726e6f2072657665616c656420616e737765727360681b60448201526064016102b3565b5f610ddf61080288888080601f0160208091040260200160405190810160405280939291908181526020018383808284375f9201919091525061176892505050565b90505f5f5f83806020019051810190610df89190611f04565b509350509250925082158190610e215760405162461bcd60e51b81526004016102b39190611fd0565b5060068601805460ff1916600217905560078601610e3f8382611fe9565b508a7fb51288ae628dca25614026175dc22a78631acc1a31f034c68c3fa241ca0fd05c83604051610e709190611fd0565b60405180910390a25050505050505050505050565b60026020525f9081526040902080546001820180546001600160a01b039092169291610eb090611c14565b80601f0160208091040260200160405190810160405280929190818152602001828054610edc90611c14565b8015610f275780601f10610efe57610100808354040283529160200191610f27565b820191905f5260205f20905b815481529060010190602001808311610f0a57829003601f168201915b505050505090806002018054610f3c90611c14565b80601f0160208091040260200160405190810160405280929190818152602001828054610f6890611c14565b8015610fb35780601f10610f8a57610100808354040283529160200191610fb3565b820191905f5260205f20905b815481529060010190602001808311610f9657829003601f168201915b50505060038401546004850154600586015460068701546007880180549798949793965091945060ff169291610fe890611c14565b80601f016020809104026020016040519081016040528092919081815260200182805461101490611c14565b801561105f5780601f106110365761010080835404028352916020019161105f565b820191905f5260205f20905b81548152906001019060200180831161104257829003601f168201915b5050505050908060080154905089565b5f5f34116110b15760405162461bcd60e51b815260206004820152600f60248201526e1c995dd85c99081c995c5d5a5c9959608a1b60448201526064016102b3565b4283116111005760405162461bcd60e51b815260206004820152601e60248201527f636f6d6d697420646561646c696e65206d75737420626520667574757265000060448201526064016102b3565b82821161114f5760405162461bcd60e51b815260206004820152601b60248201527f72657665616c206d75737420626520616674657220636f6d6d6974000000000060448201526064016102b3565b5f8054908061115d83611c5a565b909155505f81815260026020526040902080546001600160a01b0319163317815590915060018101611190888a83611d03565b50600281016111a0868883611d03565b503460038201819055600482018590556005820184905560068201805460ff191690555f196008830155604051339184917f736ab752f6714f3191bc874ebe0b24d2daa1e5a5281882b7c59d90d19c45fda491611204918d918d918b908b906120a3565b60405180910390a3509695505050505050565b5f8281526002602052604090205482906001600160a01b031661124c5760405162461bcd60e51b81526004016102b390611bd6565b5f83815260026020526040812090600682015460ff16600381111561127357611273611a1e565b146112c05760405162461bcd60e51b815260206004820152601960248201527f6e6f7420616363657074696e6720636f6d6d69746d656e74730000000000000060448201526064016102b3565b806004015442111561130a5760405162461bcd60e51b815260206004820152601360248201527218dbdb5b5a5d081c1a185cd94818db1bdcd959606a1b60448201526064016102b3565b6009810154600a1161135e5760405162461bcd60e51b815260206004820152601760248201527f6d6178207375626d697373696f6e73207265616368656400000000000000000060448201526064016102b3565b8261139e5760405162461bcd60e51b815260206004820152601060248201526f195b5c1d1e4818dbdb5b5a5d1b595b9d60821b60448201526064016102b3565b5f5b600982015481101561142d57336001600160a01b03168260090182815481106113cb576113cb611c00565b5f9182526020909120600490910201546001600160a01b0316036114255760405162461bcd60e51b8152602060048201526011602482015270185b1c9958591e4818dbdb5b5a5d1d1959607a1b60448201526064016102b3565b6001016113a0565b506040805160808101825233815260208082018681525f8385018181528551808501909652818652606085019586526009870180546001808201835591845294909220855160049095020180546001600160a01b0319166001600160a01b039095169490941784559151908301555160028201805460ff1916911515919091179055915190919060038201906114c39082611fe9565b505050600981015433906114d9906001906120e8565b60405186907f94cdee4274a7d9f10a75de5b2a8af2dc478a097d4829621fc779705fbeb040c2905f90a450505050565b5f81815260026020526040812054606090819083908190819081908190819087908b906001600160a01b03166115515760405162461bcd60e51b81526004016102b390611bd6565b5f8c8152600260208190526040909120805460038201546004830154600584015460068501546009860154600887015460018801805498996001600160a01b039098169890978a019695949360ff1692919060078b019089906115b390611c14565b80601f01602080910402602001604051908101604052809291908181526020018280546115df90611c14565b801561162a5780601f106116015761010080835404028352916020019161162a565b820191905f5260205f20905b81548152906001019060200180831161160d57829003601f168201915b5050505050985087805461163d90611c14565b80601f016020809104026020016040519081016040528092919081815260200182805461166990611c14565b80156116b45780601f1061168b576101008083540402835291602001916116b4565b820191905f5260205f20905b81548152906001019060200180831161169757829003601f168201915b505050505097508080546116c790611c14565b80601f01602080910402602001604051908101604052809291908181526020018280546116f390611c14565b801561173e5780601f106117155761010080835404028352916020019161173e565b820191905f5260205f20905b81548152906001019060200180831161172157829003601f168201915b505050505090509b509b509b509b509b509b509b509b509b509b5050509193959799509193959799565b60605f5f846001600160a01b03168460405161178491906120fb565b5f604051808303815f865af19150503d805f81146117bd576040519150601f19603f3d011682016040523d82523d5f602084013e6117c2565b606091505b5091509150816117d457805160208201fd5b6001600160a01b03851661080114806117f757506001600160a01b038516610802145b8061180c57506001600160a01b03851661081b145b15611832575f818060200190518101906118269190612111565b94506118369350505050565b9150505b92915050565b5f5f6040838503121561184d575f5ffd5b50508035926020909101359150565b5f81518084528060208401602086015e5f602082860101526020601f19601f83011685010191505092915050565b60018060a01b03851681528360208201528215156040820152608060608201525f6118b8608083018461185c565b9695505050505050565b5f602082840312156118d2575f5ffd5b5035919050565b5f5f83601f8401126118e9575f5ffd5b5081356001600160401b038111156118ff575f5ffd5b602083019150836020828501011115611916575f5ffd5b9250929050565b5f5f5f5f5f60808688031215611931575f5ffd5b85356001600160401b03811115611946575f5ffd5b611952888289016118d9565b9096509450506020860135925060408601356001600160a01b0381168114611978575f5ffd5b949793965091946060013592915050565b5f5f5f5f6060858703121561199c575f5ffd5b8435935060208501356001600160401b038111156119b8575f5ffd5b6119c4878288016118d9565b9598909750949560400135949350505050565b5f5f5f604084860312156119e9575f5ffd5b8335925060208401356001600160401b03811115611a05575f5ffd5b611a11868287016118d9565b9497909650939450505050565b634e487b7160e01b5f52602160045260245ffd5b60048110611a4e57634e487b7160e01b5f52602160045260245ffd5b9052565b6001600160a01b038a168152610120602082018190525f90611a769083018b61185c565b8281036040840152611a88818b61185c565b90508860608401528760808401528660a0840152611aa960c0840187611a32565b82810360e0840152611abb818661185c565b915050826101008301529a9950505050505050505050565b5f5f5f5f5f5f60808789031215611ae8575f5ffd5b86356001600160401b03811115611afd575f5ffd5b611b0989828a016118d9565b90975095505060208701356001600160401b03811115611b27575f5ffd5b611b3389828a016118d9565b979a9699509760408101359660609091013595509350505050565b6001600160a01b038b168152610140602082018190525f90611b729083018c61185c565b8281036040840152611b84818c61185c565b90508960608401528860808401528760a0840152611ba560c0840188611a32565b8560e084015284610100840152828103610120840152611bc5818561185c565b9d9c50505050505050505050505050565b60208082526010908201526f189bdd5b9d1e481b9bdd08199bdd5b9960821b604082015260600190565b634e487b7160e01b5f52603260045260245ffd5b600181811c90821680611c2857607f821691505b60208210810361077d57634e487b7160e01b5f52602260045260245ffd5b634e487b7160e01b5f52601160045260245ffd5b5f60018201611c6b57611c6b611c46565b5060010190565b8486823790930191825260601b6bffffffffffffffffffffffff191660208201526034810191909152605401919050565b634e487b7160e01b5f52604160045260245ffd5b601f821115611cfe57805f5260205f20601f840160051c81016020851015611cdc5750805b601f840160051c820191505b81811015611cfb575f8155600101611ce8565b50505b505050565b6001600160401b03831115611d1a57611d1a611ca3565b611d2e83611d288354611c14565b83611cb7565b5f601f841160018114611d5f575f8515611d485750838201355b5f19600387901b1c1916600186901b178355611cfb565b5f83815260208120601f198716915b82811015611d8e5786850135825560209485019460019092019101611d6e565b5086821015611daa575f1960f88860031b161c19848701351681555b505060018560011b0183555050505050565b5f82601f830112611dcb575f5ffd5b8151602083015f5f6001600160401b03841115611dea57611dea611ca3565b50604051601f19601f85018116603f011681018181106001600160401b0382111715611e1857611e18611ca3565b604052838152905080828401871015611e2f575f5ffd5b8383602083015e5f602085830101528094505050505092915050565b5f60608284031215611e5b575f5ffd5b604051606081016001600160401b0381118282101715611e7d57611e7d611ca3565b806040525080915082516001600160401b03811115611e9a575f5ffd5b611ea685828601611dbc565b82525060208301516001600160401b03811115611ec1575f5ffd5b611ecd85828601611dbc565b60208301525060408301516001600160401b03811115611eeb575f5ffd5b611ef785828601611dbc565b6040830152505092915050565b5f5f5f5f5f60a08688031215611f18575f5ffd5b85518015158114611f27575f5ffd5b60208701519095506001600160401b03811115611f42575f5ffd5b611f4e88828901611dbc565b94505060408601516001600160401b03811115611f69575f5ffd5b611f7588828901611dbc565b93505060608601516001600160401b03811115611f90575f5ffd5b611f9c88828901611dbc565b92505060808601516001600160401b03811115611fb7575f5ffd5b611fc388828901611e4b565b9150509295509295909350565b602081525f611fe2602083018461185c565b9392505050565b81516001600160401b0381111561200257612002611ca3565b612016816120108454611c14565b84611cb7565b6020601f821160018114612048575f83156120315750848201515b5f19600385901b1c1916600184901b178455611cfb565b5f84815260208120601f198516915b828110156120775787850151825560209485019460019092019101612057565b508482101561209457868401515f19600387901b60f8161c191681555b50505050600190811b01905550565b60808152846080820152848660a08301375f60a086830101525f60a0601f19601f88011683010190508460208301528360408301528260608301529695505050505050565b8181038181111561183657611836611c46565b5f82518060208501845e5f920191825250919050565b5f5f60408385031215612122575f5ffd5b82516001600160401b03811115612137575f5ffd5b61214385828601611dbc565b92505060208301516001600160401b0381111561215e575f5ffd5b61216a85828601611dbc565b915050925092905056fea2646970667358221220cfd10bf5d14cd97518d3c8bf2266254fc006cecd5c938f896ec2bc2e0987d78a64736f6c634300081c0033",
  "linkReferences": {},
  "deployedLinkReferences": {},
  "immutableReferences": {},
  "inputSourceName": "project/contracts/CommitRevealBounty.sol",
  "buildInfoId": "solc-0_8_28-152e8fe42bbddec70e14c82cb8f0e193acf7a314"
}